{
  "contractName": "Marketplace",
  "abi": [
    {
      "inputs": [],
      "payable": false,
      "stateMutability": "nonpayable",
      "type": "constructor"
    },
    {
      "anonymous": false,
      "inputs": [
        {
          "indexed": false,
          "internalType": "uint256",
          "name": "id",
          "type": "uint256"
        },
        {
          "indexed": false,
          "internalType": "string",
          "name": "name",
          "type": "string"
        },
        {
          "indexed": false,
          "internalType": "string",
          "name": "price",
          "type": "string"
        },
        {
          "indexed": false,
          "internalType": "string",
          "name": "site",
          "type": "string"
        },
        {
          "indexed": false,
          "internalType": "address",
          "name": "owner",
          "type": "address"
        },
        {
          "indexed": false,
          "internalType": "bool",
          "name": "purchased",
          "type": "bool"
        },
        {
          "indexed": false,
          "internalType": "bool",
          "name": "deleted",
          "type": "bool"
        }
      ],
      "name": "ProductCreated",
      "type": "event"
    },
    {
      "anonymous": false,
      "inputs": [
        {
          "indexed": false,
          "internalType": "uint256",
          "name": "id",
          "type": "uint256"
        },
        {
          "indexed": false,
          "internalType": "string",
          "name": "name",
          "type": "string"
        },
        {
          "indexed": false,
          "internalType": "string",
          "name": "price",
          "type": "string"
        },
        {
          "indexed": false,
          "internalType": "string",
          "name": "site",
          "type": "string"
        },
        {
          "indexed": false,
          "internalType": "address payable",
          "name": "owner",
          "type": "address"
        },
        {
          "indexed": false,
          "internalType": "bool",
          "name": "purchased",
          "type": "bool"
        },
        {
          "indexed": false,
          "internalType": "bool",
          "name": "deleted",
          "type": "bool"
        }
      ],
      "name": "ProductDeleted",
      "type": "event"
    },
    {
      "anonymous": false,
      "inputs": [
        {
          "indexed": false,
          "internalType": "uint256",
          "name": "id",
          "type": "uint256"
        },
        {
          "indexed": false,
          "internalType": "string",
          "name": "name",
          "type": "string"
        },
        {
          "indexed": false,
          "internalType": "string",
          "name": "price",
          "type": "string"
        },
        {
          "indexed": false,
          "internalType": "string",
          "name": "Site",
          "type": "string"
        },
        {
          "indexed": false,
          "internalType": "address payable",
          "name": "owner",
          "type": "address"
        },
        {
          "indexed": false,
          "internalType": "bool",
          "name": "purchased",
          "type": "bool"
        },
        {
          "indexed": false,
          "internalType": "bool",
          "name": "deleted",
          "type": "bool"
        }
      ],
      "name": "ProductPurchased",
      "type": "event"
    },
    {
      "constant": true,
      "inputs": [],
      "name": "name",
      "outputs": [
        {
          "internalType": "string",
          "name": "",
          "type": "string"
        }
      ],
      "payable": false,
      "stateMutability": "view",
      "type": "function"
    },
    {
      "constant": true,
      "inputs": [],
      "name": "productCount",
      "outputs": [
        {
          "internalType": "uint256",
          "name": "",
          "type": "uint256"
        }
      ],
      "payable": false,
      "stateMutability": "view",
      "type": "function"
    },
    {
      "constant": true,
      "inputs": [
        {
          "internalType": "uint256",
          "name": "",
          "type": "uint256"
        }
      ],
      "name": "products",
      "outputs": [
        {
          "internalType": "uint256",
          "name": "id",
          "type": "uint256"
        },
        {
          "internalType": "string",
          "name": "name",
          "type": "string"
        },
        {
          "internalType": "string",
          "name": "price",
          "type": "string"
        },
        {
          "internalType": "string",
          "name": "site",
          "type": "string"
        },
        {
          "internalType": "address",
          "name": "owner",
          "type": "address"
        },
        {
          "internalType": "bool",
          "name": "purchased",
          "type": "bool"
        },
        {
          "internalType": "bool",
          "name": "deleted",
          "type": "bool"
        }
      ],
      "payable": false,
      "stateMutability": "view",
      "type": "function"
    },
    {
      "constant": false,
      "inputs": [
        {
          "internalType": "string",
          "name": "_name",
          "type": "string"
        },
        {
          "internalType": "string",
          "name": "_price",
          "type": "string"
        },
        {
          "internalType": "string",
          "name": "_site",
          "type": "string"
        }
      ],
      "name": "createProduct",
      "outputs": [],
      "payable": false,
      "stateMutability": "nonpayable",
      "type": "function"
    },
    {
      "constant": false,
      "inputs": [
        {
          "internalType": "uint256",
          "name": "_id",
          "type": "uint256"
        }
      ],
      "name": "deleteProduct",
      "outputs": [],
      "payable": false,
      "stateMutability": "nonpayable",
      "type": "function"
    },
    {
      "constant": false,
      "inputs": [
        {
          "internalType": "uint256",
          "name": "_id",
          "type": "uint256"
        }
      ],
      "name": "purchaseProduct",
      "outputs": [],
      "payable": true,
      "stateMutability": "payable",
      "type": "function"
    }
  ],
  "bytecode": "0x608060405260006001553480156200001657600080fd5b506040518060400160405280601a81526020017f416e756268617620536861726d61204d61726b6574706c61636500000000000081525060009080519060200190620000649291906200006b565b506200011a565b828054600181600116156101000203166002900490600052602060002090601f016020900481019282601f10620000ae57805160ff1916838001178555620000df565b82800160010185558215620000df579182015b82811115620000de578251825591602001919060010190620000c1565b5b509050620000ee9190620000f2565b5090565b6200011791905b8082111562000113576000816000905550600101620000f9565b5090565b90565b611945806200012a6000396000f3fe6080604052600436106100555760003560e01c806306fdde031461005a57806338e76a03146100ea5780637acc0b2014610118578063d768468b146102f4578063e0f6ef87146104ea578063ed90c7b714610515575b600080fd5b34801561006657600080fd5b5061006f610550565b6040518080602001828103825283818151815260200191508051906020019080838360005b838110156100af578082015181840152602081019050610094565b50505050905090810190601f1680156100dc5780820380516001836020036101000a031916815260200191505b509250505060405180910390f35b6101166004803603602081101561010057600080fd5b81019080803590602001909291905050506105ee565b005b34801561012457600080fd5b506101516004803603602081101561013b57600080fd5b8101908080359060200190929190505050610c74565b604051808881526020018060200180602001806020018773ffffffffffffffffffffffffffffffffffffffff1673ffffffffffffffffffffffffffffffffffffffff168152602001861515151581526020018515151515815260200184810384528a818151815260200191508051906020019080838360005b838110156101e55780820151818401526020810190506101ca565b50505050905090810190601f1680156102125780820380516001836020036101000a031916815260200191505b50848103835289818151815260200191508051906020019080838360005b8381101561024b578082015181840152602081019050610230565b50505050905090810190601f1680156102785780820380516001836020036101000a031916815260200191505b50848103825288818151815260200191508051906020019080838360005b838110156102b1578082015181840152602081019050610296565b50505050905090810190601f1680156102de5780820380516001836020036101000a031916815260200191505b509a505050505050505050505060405180910390f35b34801561030057600080fd5b506104e86004803603606081101561031757600080fd5b810190808035906020019064010000000081111561033457600080fd5b82018360208201111561034657600080fd5b8035906020019184600183028401116401000000008311171561036857600080fd5b91908080601f016020809104026020016040519081016040528093929190818152602001838380828437600081840152601f19601f820116905080830192505050505050509192919290803590602001906401000000008111156103cb57600080fd5b8201836020820111156103dd57600080fd5b803590602001918460018302840111640100000000831117156103ff57600080fd5b91908080601f016020809104026020016040519081016040528093929190818152602001838380828437600081840152601f19601f8201169050808301925050505050505091929192908035906020019064010000000081111561046257600080fd5b82018360208201111561047457600080fd5b8035906020019184600183028401116401000000008311171561049657600080fd5b91908080601f016020809104026020016040519081016040528093929190818152602001838380828437600081840152601f19601f820116905080830192505050505050509192919290505050610eb8565b005b3480156104f657600080fd5b506104ff611217565b6040518082815260200191505060405180910390f35b34801561052157600080fd5b5061054e6004803603602081101561053857600080fd5b810190808035906020019092919050505061121d565b005b60008054600181600116156101000203166002900480601f0160208091040260200160405190810160405280929190818152602001828054600181600116156101000203166002900480156105e65780601f106105bb576101008083540402835291602001916105e6565b820191906000526020600020905b8154815290600101906020018083116105c957829003601f168201915b505050505081565b6105f6611814565b600260008381526020019081526020016000206040518060e001604052908160008201548152602001600182018054600181600116156101000203166002900480601f0160208091040260200160405190810160405280929190818152602001828054600181600116156101000203166002900480156106b75780601f1061068c576101008083540402835291602001916106b7565b820191906000526020600020905b81548152906001019060200180831161069a57829003601f168201915b50505050508152602001600282018054600181600116156101000203166002900480601f0160208091040260200160405190810160405280929190818152602001828054600181600116156101000203166002900480156107595780601f1061072e57610100808354040283529160200191610759565b820191906000526020600020905b81548152906001019060200180831161073c57829003601f168201915b50505050508152602001600382018054600181600116156101000203166002900480601f0160208091040260200160405190810160405280929190818152602001828054600181600116156101000203166002900480156107fb5780601f106107d0576101008083540402835291602001916107fb565b820191906000526020600020905b8154815290600101906020018083116107de57829003601f168201915b505050505081526020016004820160009054906101000a900473ffffffffffffffffffffffffffffffffffffffff1673ffffffffffffffffffffffffffffffffffffffff1673ffffffffffffffffffffffffffffffffffffffff1681526020016004820160149054906101000a900460ff161515151581526020016004820160159054906101000a900460ff1615151515815250509050600081608001519050600082600001511180156108b55750600154826000015111155b6108be57600080fd5b8160a00151156108cd57600080fd5b3373ffffffffffffffffffffffffffffffffffffffff168173ffffffffffffffffffffffffffffffffffffffff16141561090657600080fd5b33826080019073ffffffffffffffffffffffffffffffffffffffff16908173ffffffffffffffffffffffffffffffffffffffff168152505060018260a0019015159081151581525050816002600085815260200190815260200160002060008201518160000155602082015181600101908051906020019061098992919061186b565b5060408201518160020190805190602001906109a692919061186b565b5060608201518160030190805190602001906109c392919061186b565b5060808201518160040160006101000a81548173ffffffffffffffffffffffffffffffffffffffff021916908373ffffffffffffffffffffffffffffffffffffffff16021790555060a08201518160040160146101000a81548160ff02191690831515021790555060c08201518160040160156101000a81548160ff0219169083151502179055509050508073ffffffffffffffffffffffffffffffffffffffff166108fc349081150290604051600060405180830381858888f19350505050158015610a94573d6000803e3d6000fd5b507f573766213a8571134a25adf5f684f3e93ba995c9ca224d3853e3fb9baf349c356001548360200151846040015185606001513360016000604051808881526020018060200180602001806020018773ffffffffffffffffffffffffffffffffffffffff1673ffffffffffffffffffffffffffffffffffffffff168152602001861515151581526020018515151515815260200184810384528a818151815260200191508051906020019080838360005b83811015610b61578082015181840152602081019050610b46565b50505050905090810190601f168015610b8e5780820380516001836020036101000a031916815260200191505b50848103835289818151815260200191508051906020019080838360005b83811015610bc7578082015181840152602081019050610bac565b50505050905090810190601f168015610bf45780820380516001836020036101000a031916815260200191505b50848103825288818151815260200191508051906020019080838360005b83811015610c2d578082015181840152602081019050610c12565b50505050905090810190601f168015610c5a5780820380516001836020036101000a031916815260200191505b509a505050505050505050505060405180910390a1505050565b6002602052806000526040600020600091509050806000015490806001018054600181600116156101000203166002900480601f016020809104026020016040519081016040528092919081815260200182805460018160011615610100020316600290048015610d265780601f10610cfb57610100808354040283529160200191610d26565b820191906000526020600020905b815481529060010190602001808311610d0957829003601f168201915b505050505090806002018054600181600116156101000203166002900480601f016020809104026020016040519081016040528092919081815260200182805460018160011615610100020316600290048015610dc45780601f10610d9957610100808354040283529160200191610dc4565b820191906000526020600020905b815481529060010190602001808311610da757829003601f168201915b505050505090806003018054600181600116156101000203166002900480601f016020809104026020016040519081016040528092919081815260200182805460018160011615610100020316600290048015610e625780601f10610e3757610100808354040283529160200191610e62565b820191906000526020600020905b815481529060010190602001808311610e4557829003601f168201915b5050505050908060040160009054906101000a900473ffffffffffffffffffffffffffffffffffffffff16908060040160149054906101000a900460ff16908060040160159054906101000a900460ff16905087565b6000835111610ec657600080fd5b6000825111610ed457600080fd5b6000815111610ee257600080fd5b6001600081548092919060010191905055506040518060e0016040528060015481526020018481526020018381526020018281526020013373ffffffffffffffffffffffffffffffffffffffff16815260200160001515815260200160001515815250600260006001548152602001908152602001600020600082015181600001556020820151816001019080519060200190610f8092919061186b565b506040820151816002019080519060200190610f9d92919061186b565b506060820151816003019080519060200190610fba92919061186b565b5060808201518160040160006101000a81548173ffffffffffffffffffffffffffffffffffffffff021916908373ffffffffffffffffffffffffffffffffffffffff16021790555060a08201518160040160146101000a81548160ff02191690831515021790555060c08201518160040160156101000a81548160ff0219169083151502179055509050507fb8edd3c5ae95f164bdf407dc5d06d1f209a12e4b9ba10aa57d49eabd3e6d79b360015484848433600080604051808881526020018060200180602001806020018773ffffffffffffffffffffffffffffffffffffffff1673ffffffffffffffffffffffffffffffffffffffff168152602001861515151581526020018515151515815260200184810384528a818151815260200191508051906020019080838360005b838110156111045780820151818401526020810190506110e9565b50505050905090810190601f1680156111315780820380516001836020036101000a031916815260200191505b50848103835289818151815260200191508051906020019080838360005b8381101561116a57808201518184015260208101905061114f565b50505050905090810190601f1680156111975780820380516001836020036101000a031916815260200191505b50848103825288818151815260200191508051906020019080838360005b838110156111d05780820151818401526020810190506111b5565b50505050905090810190601f1680156111fd5780820380516001836020036101000a031916815260200191505b509a505050505050505050505060405180910390a1505050565b60015481565b611225611814565b600260008381526020019081526020016000206040518060e001604052908160008201548152602001600182018054600181600116156101000203166002900480601f0160208091040260200160405190810160405280929190818152602001828054600181600116156101000203166002900480156112e65780601f106112bb576101008083540402835291602001916112e6565b820191906000526020600020905b8154815290600101906020018083116112c957829003601f168201915b50505050508152602001600282018054600181600116156101000203166002900480601f0160208091040260200160405190810160405280929190818152602001828054600181600116156101000203166002900480156113885780601f1061135d57610100808354040283529160200191611388565b820191906000526020600020905b81548152906001019060200180831161136b57829003601f168201915b50505050508152602001600382018054600181600116156101000203166002900480601f01602080910402602001604051908101604052809291908181526020018280546001816001161561010002031660029004801561142a5780601f106113ff5761010080835404028352916020019161142a565b820191906000526020600020905b81548152906001019060200180831161140d57829003601f168201915b505050505081526020016004820160009054906101000a900473ffffffffffffffffffffffffffffffffffffffff1673ffffffffffffffffffffffffffffffffffffffff1673ffffffffffffffffffffffffffffffffffffffff1681526020016004820160149054906101000a900460ff161515151581526020016004820160159054906101000a900460ff1615151515815250509050600081608001519050600082600001511180156114e45750600154826000015111155b6114ed57600080fd5b3373ffffffffffffffffffffffffffffffffffffffff168173ffffffffffffffffffffffffffffffffffffffff161461152557600080fd5b60018260c0019015159081151581525050816002600085815260200190815260200160002060008201518160000155602082015181600101908051906020019061157092919061186b565b50604082015181600201908051906020019061158d92919061186b565b5060608201518160030190805190602001906115aa92919061186b565b5060808201518160040160006101000a81548173ffffffffffffffffffffffffffffffffffffffff021916908373ffffffffffffffffffffffffffffffffffffffff16021790555060a08201518160040160146101000a81548160ff02191690831515021790555060c08201518160040160156101000a81548160ff0219169083151502179055509050507fddceaf49d7d235ba6ff4499f790fd07dd8ed0d127d840fdeadb5e9ed2a14afeb6001548360200151846040015185606001513360006001604051808881526020018060200180602001806020018773ffffffffffffffffffffffffffffffffffffffff1673ffffffffffffffffffffffffffffffffffffffff168152602001861515151581526020018515151515815260200184810384528a818151815260200191508051906020019080838360005b838110156117015780820151818401526020810190506116e6565b50505050905090810190601f16801561172e5780820380516001836020036101000a031916815260200191505b50848103835289818151815260200191508051906020019080838360005b8381101561176757808201518184015260208101905061174c565b50505050905090810190601f1680156117945780820380516001836020036101000a031916815260200191505b50848103825288818151815260200191508051906020019080838360005b838110156117cd5780820151818401526020810190506117b2565b50505050905090810190601f1680156117fa5780820380516001836020036101000a031916815260200191505b509a505050505050505050505060405180910390a1505050565b6040518060e0016040528060008152602001606081526020016060815260200160608152602001600073ffffffffffffffffffffffffffffffffffffffff1681526020016000151581526020016000151581525090565b828054600181600116156101000203166002900490600052602060002090601f016020900481019282601f106118ac57805160ff19168380011785556118da565b828001600101855582156118da579182015b828111156118d95782518255916020019190600101906118be565b5b5090506118e791906118eb565b5090565b61190d91905b808211156119095760008160009055506001016118f1565b5090565b9056fea265627a7a72315820daa47758ad81c6e30a38e0e11cf547755cb8d4570763b3d9445a30eff847ceb764736f6c63430005100032",
  "source": "pragma solidity ^0.5.0;\n\ncontract Marketplace {\n string public name;\n   uint public productCount = 0;\n    mapping(uint => Product) public products;\n\n   struct Product {\n    uint id;\n    string name;\n    string price;\n    string site;\n    address owner;\n    bool purchased;\n    bool deleted;\n}   \n     event ProductCreated(\n        uint id,\n        string name,\n        string price,\n        string site,\n        address owner,\n        bool purchased,\n        bool deleted\n    );\n    event ProductPurchased(\n    uint id,\n    string name,\n    string price,\n    string Site,\n    address payable owner,\n    bool purchased,\n    bool deleted\n);\nevent ProductDeleted(\n    uint id,\n    string name,\n    string price,\n    string site,\n    address payable owner,\n    bool purchased,\n     bool deleted\n);\n\n constructor() public {\n        name = \"Anubhav Sharma Marketplace\";\n    }\n function createProduct(string memory _name, string memory _price , string memory _site) public {\n        // Require a valid name\n        require(bytes(_name).length > 0);\n        // Require a valid price\n        require(bytes(_price).length > 0);\n        // Require a valid site\n        require(bytes(_site).length > 0);\n        // Increment product count\n        productCount++;\n        // Create the product\n        products[productCount] = Product(productCount, _name, _price, _site , msg.sender, false,false);\n        // Trigger an event\n        emit ProductCreated(productCount, _name, _price, _site, msg.sender, false,false);\n    }\n\n  function deleteProduct(uint _id) public {\n       Product memory _product = products[_id];\n    // Fetch the owner\n    address payable _seller = address(uint160(_product.owner));\n    // Make sure the product has a valid id\n    require(_product.id > 0 && _product.id <= productCount);\n    // Require that the buyer is the seller\n    require(_seller == msg.sender);\n    _product.deleted=true;\n    // Update the product\n    products[_id] = _product;\n    // Trigger an event\n    emit ProductDeleted(productCount, _product.name, _product.price, _product.site, msg.sender, false,true);\n    }\n  \n\n    function purchaseProduct(uint _id) public payable {\n    // Fetch the product\n    Product memory _product = products[_id];\n    // Fetch the owner\n    address payable _seller = address(uint160(_product.owner));\n    // Make sure the product has a valid id\n    require(_product.id > 0 && _product.id <= productCount);\n    // Require that there is enough Ether in the transaction\n    // Require that the product has not been purchased already\n    require(!_product.purchased);\n    // Require that the buyer is not the seller\n    require(_seller != msg.sender);\n    // Transfer ownership to the buyer\n    _product.owner = msg.sender;\n    // Mark as purchased\n    _product.purchased = true;\n    // Update the product\n    products[_id] = _product;\n    // Pay the seller by sending them Ether\n    address(_seller).transfer(msg.value);\n    // Trigger an event\n    emit ProductPurchased(productCount, _product.name, _product.price, _product.site, msg.sender, true, false);\n}\n}",
  "sourcePath": "D:\\Anubhav Sharma\\Downloads\\project blockchain\\project blockchain\\src\\contracts\\Marketplace.sol",
  "compiler": {
    "name": "solc",
    "version": "0.5.16+commit.9c3226ce.Emscripten.clang"
  },
  "schemaVersion": "3.4.11",
  "updatedAt": "2022-12-23T19:47:14.878Z",
  "devdoc": {
    "methods": {}
  },
  "userdoc": {
    "methods": {}
  }
}